{
  "contractName": "Bilietai",
  "abi": [
    {
      "inputs": [],
      "stateMutability": "nonpayable",
      "type": "constructor"
    },
    {
      "anonymous": false,
      "inputs": [
        {
          "indexed": false,
          "internalType": "address",
          "name": "buyer",
          "type": "address"
        },
        {
          "indexed": false,
          "internalType": "uint256",
          "name": "finalPrice",
          "type": "uint256"
        },
        {
          "indexed": false,
          "internalType": "uint256",
          "name": "ticketsSoldCount",
          "type": "uint256"
        }
      ],
      "name": "TicketPurchased",
      "type": "event"
    },
    {
      "inputs": [
        {
          "internalType": "uint256",
          "name": "",
          "type": "uint256"
        }
      ],
      "name": "bilietai",
      "outputs": [
        {
          "internalType": "uint256",
          "name": "kaina",
          "type": "uint256"
        },
        {
          "internalType": "uint256",
          "name": "moketaKaina",
          "type": "uint256"
        },
        {
          "internalType": "address",
          "name": "kieno",
          "type": "address"
        },
        {
          "internalType": "string",
          "name": "data",
          "type": "string"
        },
        {
          "internalType": "string",
          "name": "vieta",
          "type": "string"
        }
      ],
      "stateMutability": "view",
      "type": "function",
      "constant": true
    },
    {
      "inputs": [],
      "name": "earlyBirdDiscount",
      "outputs": [
        {
          "internalType": "uint256",
          "name": "",
          "type": "uint256"
        }
      ],
      "stateMutability": "view",
      "type": "function",
      "constant": true
    },
    {
      "inputs": [],
      "name": "owner",
      "outputs": [
        {
          "internalType": "address",
          "name": "",
          "type": "address"
        }
      ],
      "stateMutability": "view",
      "type": "function",
      "constant": true
    },
    {
      "inputs": [],
      "name": "ticketsSold",
      "outputs": [
        {
          "internalType": "uint256",
          "name": "",
          "type": "uint256"
        }
      ],
      "stateMutability": "view",
      "type": "function",
      "constant": true
    },
    {
      "inputs": [
        {
          "internalType": "uint256",
          "name": "_index",
          "type": "uint256"
        }
      ],
      "name": "pirktiBilietus",
      "outputs": [],
      "stateMutability": "payable",
      "type": "function",
      "payable": true
    },
    {
      "inputs": [
        {
          "internalType": "uint256",
          "name": "_index",
          "type": "uint256"
        }
      ],
      "name": "grazintiBilietas",
      "outputs": [],
      "stateMutability": "nonpayable",
      "type": "function"
    }
  ],
  "bytecode": "0x6080604052603260015560006002553480156200001b57600080fd5b50336000806101000a81548173ffffffffffffffffffffffffffffffffffffffff021916908373ffffffffffffffffffffffffffffffffffffffff16021790555060005b600a8110156200019057670de0b6b3a7640000600382600a811062000089576200008862000247565b5b60050201600001819055506000600382600a8110620000ad57620000ac62000247565b5b6005020160020160006101000a81548173ffffffffffffffffffffffffffffffffffffffff021916908373ffffffffffffffffffffffffffffffffffffffff16021790555060405180602001604052806000815250600382600a811062000119576200011862000247565b5b6005020160030190805190602001906200013592919062000197565b5060405180602001604052806000815250600382600a81106200015d576200015c62000247565b5b6005020160040190805190602001906200017992919062000197565b5080806200018790620002af565b9150506200005f565b5062000362565b828054620001a5906200032c565b90600052602060002090601f016020900481019282620001c9576000855562000215565b82601f10620001e457805160ff191683800117855562000215565b8280016001018555821562000215579182015b8281111562000214578251825591602001919060010190620001f7565b5b50905062000224919062000228565b5090565b5b808211156200024357600081600090555060010162000229565b5090565b7f4e487b7100000000000000000000000000000000000000000000000000000000600052603260045260246000fd5b7f4e487b7100000000000000000000000000000000000000000000000000000000600052601160045260246000fd5b6000819050919050565b6000620002bc82620002a5565b91507fffffffffffffffffffffffffffffffffffffffffffffffffffffffffffffffff821415620002f257620002f162000276565b5b600182019050919050565b7f4e487b7100000000000000000000000000000000000000000000000000000000600052602260045260246000fd5b600060028204905060018216806200034557607f821691505b602082108114156200035c576200035b620002fd565b5b50919050565b610cb380620003726000396000f3fe6080604052600436106100555760003560e01c806309f804301461005a5780638da5cb5b1461009b5780638f15024f146100c6578063a7ece74d146100f1578063b23f25541461011c578063eff60da514610138575b600080fd5b34801561006657600080fd5b50610081600480360381019061007c91906107ad565b610161565b6040516100929594939291906108c3565b60405180910390f35b3480156100a757600080fd5b506100b06102cd565b6040516100bd9190610924565b60405180910390f35b3480156100d257600080fd5b506100db6102f1565b6040516100e8919061093f565b60405180910390f35b3480156100fd57600080fd5b506101066102f7565b604051610113919061093f565b60405180910390f35b610136600480360381019061013191906107ad565b6102fd565b005b34801561014457600080fd5b5061015f600480360381019061015a91906107ad565b61059f565b005b600381600a811061017157600080fd5b600502016000915090508060000154908060010154908060020160009054906101000a900473ffffffffffffffffffffffffffffffffffffffff16908060030180546101bc90610989565b80601f01602080910402602001604051908101604052809291908181526020018280546101e890610989565b80156102355780601f1061020a57610100808354040283529160200191610235565b820191906000526020600020905b81548152906001019060200180831161021857829003601f168201915b50505050509080600401805461024a90610989565b80601f016020809104026020016040519081016040528092919081815260200182805461027690610989565b80156102c35780601f10610298576101008083540402835291602001916102c3565b820191906000526020600020905b8154815290600101906020018083116102a657829003601f168201915b5050505050905085565b60008054906101000a900473ffffffffffffffffffffffffffffffffffffffff1681565b60025481565b60015481565b600a8110801561030e575060008110155b61034d576040517f08c379a000000000000000000000000000000000000000000000000000000000815260040161034490610a07565b60405180910390fd5b600073ffffffffffffffffffffffffffffffffffffffff16600382600a811061037957610378610a27565b5b6005020160020160009054906101000a900473ffffffffffffffffffffffffffffffffffffffff1673ffffffffffffffffffffffffffffffffffffffff16146103f7576040517f08c379a00000000000000000000000000000000000000000000000000000000081526004016103ee90610aa2565b60405180910390fd5b6000600382600a811061040d5761040c610a27565b5b600502016000015490506003600254101561042e576706f05b59d3b2000090505b80341015610471576040517f08c379a000000000000000000000000000000000000000000000000000000000815260040161046890610b0e565b60405180910390fd5b33600383600a811061048657610485610a27565b5b6005020160020160006101000a81548173ffffffffffffffffffffffffffffffffffffffff021916908373ffffffffffffffffffffffffffffffffffffffff16021790555080600383600a81106104e0576104df610a27565b5b6005020160010181905550600260008154809291906104fe90610b5d565b91905055507f2a91574e12ad96234e84923e146b0946ecfb871cd8d5534dc1fdcbe87a7c01b3338260025460405161053893929190610ba6565b60405180910390a18034111561059b573373ffffffffffffffffffffffffffffffffffffffff166108fc823461056e9190610bdd565b9081150290604051600060405180830381858888f19350505050158015610599573d6000803e3d6000fd5b505b5050565b600a81106105e2576040517f08c379a00000000000000000000000000000000000000000000000000000000081526004016105d990610a07565b60405180910390fd5b3373ffffffffffffffffffffffffffffffffffffffff16600382600a811061060d5761060c610a27565b5b6005020160020160009054906101000a900473ffffffffffffffffffffffffffffffffffffffff1673ffffffffffffffffffffffffffffffffffffffff161461068b576040517f08c379a000000000000000000000000000000000000000000000000000000000815260040161068290610c5d565b60405180910390fd5b6000600382600a81106106a1576106a0610a27565b5b600502016001015490506000600383600a81106106c1576106c0610a27565b5b6005020160020160006101000a81548173ffffffffffffffffffffffffffffffffffffffff021916908373ffffffffffffffffffffffffffffffffffffffff1602179055506000600383600a811061071c5761071b610a27565b5b60050201600101819055503373ffffffffffffffffffffffffffffffffffffffff166108fc829081150290604051600060405180830381858888f1935050505015801561076d573d6000803e3d6000fd5b505050565b600080fd5b6000819050919050565b61078a81610777565b811461079557600080fd5b50565b6000813590506107a781610781565b92915050565b6000602082840312156107c3576107c2610772565b5b60006107d184828501610798565b91505092915050565b6107e381610777565b82525050565b600073ffffffffffffffffffffffffffffffffffffffff82169050919050565b6000610814826107e9565b9050919050565b61082481610809565b82525050565b600081519050919050565b600082825260208201905092915050565b60005b83811015610864578082015181840152602081019050610849565b83811115610873576000848401525b50505050565b6000601f19601f8301169050919050565b60006108958261082a565b61089f8185610835565b93506108af818560208601610846565b6108b881610879565b840191505092915050565b600060a0820190506108d860008301886107da565b6108e560208301876107da565b6108f2604083018661081b565b8181036060830152610904818561088a565b90508181036080830152610918818461088a565b90509695505050505050565b6000602082019050610939600083018461081b565b92915050565b600060208201905061095460008301846107da565b92915050565b7f4e487b7100000000000000000000000000000000000000000000000000000000600052602260045260246000fd5b600060028204905060018216806109a157607f821691505b602082108114156109b5576109b461095a565b5b50919050565b7f496e76616c6964207469636b657420696e6465782e0000000000000000000000600082015250565b60006109f1601583610835565b91506109fc826109bb565b602082019050919050565b60006020820190508181036000830152610a20816109e4565b9050919050565b7f4e487b7100000000000000000000000000000000000000000000000000000000600052603260045260246000fd5b7f5469636b657420697320616c726561647920736f6c642e000000000000000000600082015250565b6000610a8c601783610835565b9150610a9782610a56565b602082019050919050565b60006020820190508181036000830152610abb81610a7f565b9050919050565b7f496e73756666696369656e742066756e647320746f2070757263686173652e00600082015250565b6000610af8601f83610835565b9150610b0382610ac2565b602082019050919050565b60006020820190508181036000830152610b2781610aeb565b9050919050565b7f4e487b7100000000000000000000000000000000000000000000000000000000600052601160045260246000fd5b6000610b6882610777565b91507fffffffffffffffffffffffffffffffffffffffffffffffffffffffffffffffff821415610b9b57610b9a610b2e565b5b600182019050919050565b6000606082019050610bbb600083018661081b565b610bc860208301856107da565b610bd560408301846107da565b949350505050565b6000610be882610777565b9150610bf383610777565b925082821015610c0657610c05610b2e565b5b828203905092915050565b7f596f7520646f206e6f74206f776e2074686973207469636b65742e0000000000600082015250565b6000610c47601b83610835565b9150610c5282610c11565b602082019050919050565b60006020820190508181036000830152610c7681610c3a565b905091905056fea264697066735822122000908d91d6ce2ee2a9784347948c2cbf2312743fea643545647226664c881e0a64736f6c634300080b0033",
  "immutableReferences": {},
  "source": "// SPDX-License-Identifier: MIT\r\npragma solidity >=0.4.22 <0.9.0;\r\n\r\nuint256 constant VISI_BILIETAI = 10;\r\n\r\ncontract Bilietai {\r\n    address public owner; // Owner of the contract\r\n    uint256 public earlyBirdDiscount = 50; // Early discount percentage for first 3 tickets\r\n    uint256 public ticketsSold = 0; // Track tickets sold\r\n\r\n    struct Bilietas {\r\n        uint256 kaina;\r\n        uint256 moketaKaina; // Actual price paid by the buyer\r\n        address kieno;\r\n        string data;\r\n        string vieta;\r\n    }\r\n\r\n\r\n    Bilietas[VISI_BILIETAI] public bilietai;\r\n\r\n    constructor() {\r\n        owner = msg.sender; // Set the contract deployer as the owner\r\n        for (uint256 i = 0; i < VISI_BILIETAI; i++) {\r\n            bilietai[i].kaina = 1e18; // 1 ETH as base price\r\n            bilietai[i].kieno = address(0x0); // Available for purchase\r\n            bilietai[i].data = \"\"; // Empty date by default\r\n            bilietai[i].vieta = \"\"; // Empty location by default\r\n        }\r\n    }\r\n\r\n    // Modifier to check if the sender is the owner\r\n    modifier onlyOwner() {\r\n        require(msg.sender == owner, \"You are not the owner.\");\r\n        _;\r\n    }\r\n\r\n    event TicketPurchased(address buyer, uint256 finalPrice, uint256 ticketsSoldCount);\r\n\r\n    function pirktiBilietus(uint256 _index) external payable {\r\n        require(_index < VISI_BILIETAI && _index >= 0, \"Invalid ticket index.\");\r\n        require(bilietai[_index].kieno == address(0x0), \"Ticket is already sold.\");\r\n        \r\n        uint256 finalPrice = bilietai[_index].kaina;\r\n\r\n        // Apply early bird discount if less than 3 tickets sold\r\n        if (ticketsSold < 3) {\r\n            finalPrice = 5e17; // 50% of the original price\r\n        }\r\n\r\n        require(msg.value >= finalPrice, \"Insufficient funds to purchase.\");\r\n\r\n        bilietai[_index].kieno = msg.sender;\r\n        bilietai[_index].moketaKaina = finalPrice; // Store the actual amount paid\r\n\r\n        // Increment ticket count\r\n        ticketsSold++;\r\n\r\n        // Emit event to track the purchase\r\n        emit TicketPurchased(msg.sender, finalPrice, ticketsSold);\r\n\r\n        // Refund any excess funds\r\n        if (msg.value > finalPrice) {\r\n            payable(msg.sender).transfer(msg.value - finalPrice);\r\n        }\r\n    }\r\n\r\n\r\n\r\n    // Request a refund for a ticket (before an event starts)\r\n    function grazintiBilietas(uint256 _index) external {\r\n        require(_index < VISI_BILIETAI, \"Invalid ticket index.\");\r\n        require(bilietai[_index].kieno == msg.sender, \"You do not own this ticket.\");\r\n        \r\n        uint256 refundAmount = bilietai[_index].moketaKaina; // Refund the actual amount paid\r\n\r\n        // Set ticket as available again and refund the owner\r\n        bilietai[_index].kieno = address(0x0);\r\n        bilietai[_index].moketaKaina = 0; // Reset paid price to 0\r\n        payable(msg.sender).transfer(refundAmount);\r\n    }\r\n\r\n\r\n}\r\n",
  "sourcePath": "C:\\Users\\Hi\\laboras\\contracts\\Bilietai.sol",
  "compiler": {
    "name": "solc",
    "version": "0.8.11+commit.d7f03943.Emscripten.clang"
  },
  "schemaVersion": "3.4.16",
  "updatedAt": "2024-12-11T21:44:31.871Z",
  "networkType": "ethereum",
  "devdoc": {
    "kind": "dev",
    "methods": {},
    "version": 1
  },
  "userdoc": {
    "kind": "user",
    "methods": {},
    "version": 1
  }
}